:107C000011E0A0E0B1E0E5EDFFE702C005900D92C4
:107C1000A230B107D9F701C009C1112484B7882364
:107C200061F0982F9A70923041F081FF02C097EF77
:107C300094BF282E80E0E5D0E3C185E080938100E9
:107C400082E08093C00088E18093C10086E0809349
:107C5000C20080E18093C4008EE0D3D0259A86E0F4
:107C6000AAD0F4D0C0900001D0900101BED08134E0
:107C700071F4BBD0C82FCBD0C23811F481E005C05D
:107C8000C13811F488E001C083E0A8D056C0823426
:107C900011F484E103C0853419F485E0C0D04DC0EF
:107CA000853539F4A2D0082FA0D0182F000F111F4E
:107CB00043C0863521F484E0B2D080E0E6CF84363C
:107CC00091F493D092D0F82E90D0E82EC0E0D1E07D
:107CD0008CD08993FC12FCCF9AD02F2DA801B6012D
:107CE0008E2D2ED02AC08437D1F47FD07ED0F82EAE
:107CF0007CD0E82E8CD0E80185E4E81208C0CE01E3
:107D000029D16CD0FA942196F110F9CF16C0FE015A
:107D10008591EF0163D0FA94F110F9CF0EC0853749
:107D200039F475D08EE15AD085E958D08FE0ADCFC7
:107D3000813511F488E065D06AD080E14FD096CFCC
:107D4000EF92FF921F93CF93DF93853469F4EB0199
:107D50007A01122F112349F16991C70103D1115002
:107D60008FEFE81AF80AF6CF83E0FA0187BFE895AB
:107D700007B600FCFDCFDB01EA01C61BD70B81E093
:107D8000FE01EA0FFB1F6D917D910B0187BFE89506
:107D900011242250A9F785E0FA0187BFE89507B6BC
:107DA00000FCFDCF81E187BFE895DF91CF911F9166
:107DB000FF90EF90089528E13EEF91E03093850029
:107DC0002093840096BBB09BFECF1D9AA89540914E
:107DD000C00047FD02C0815089F708959091C0000E
:107DE00095FFFCCF8093C60008958091C00087FF67
:107DF000FCCF8091C00084FD01C0A8958091C60091
:107E00000895E0E6F0E098E1908380830895EDDF47
:107E1000803219F088E0F5DFFFCF84E1DFCFCF9328
:107E2000C82FE3DFC150E9F7CF91F1CFFC010A0180
:107E300067BFE895112407B600FCFDCF667029F0F6
:107E4000452B19F481E187BFE8950895CF92DF9221
:107E5000EF92FF920F931F93CF93DF9380E090E018
:107E600079D08C3409F06BC081E090E073D0833519
:107E700009F065C08BE09EE37C01EE24E894F0F805
:107E8000F694E79482E090E065D0C82F83E090E01C
:107E900061D0D82F80E090E0C12CD12C8C179D07A9
:107EA00040F4F701E80FF91FE491CE0ED11C0196C2
:107EB000F5CF84E090E04ED0082F85E090E04AD0E6
:107EC000182FC016D10609F03AC0CE018F77992736
:107ED000892B19F0C078C058DF4F00E010E0C09047
:107EE0000001D09001010C171D07F8F4C801A0E0B3
:107EF000B1E040E050E0FC01EE0DFF1D24912D9318
:107F0000FC013491231711F041E050E00196A038B4
:107F1000F1E0BF0781F7452B29F020E8A801B60161
:107F200086E40EDF00581F4FDECF6FEF80E090E059
:107F300019D06FEF81E090E015D08AE03CDF80E05F
:107F400090E0DF91CF911F910F91FF90EF90DF9024
:107F5000CF900895F999FECF92BD81BDF89A9927E7
:107F600080B50895262FF999FECF1FBA92BD81BD25
:107F700020BD0FB6F894FA9AF99A0FBE01960895AB
:107F800056657273696F6E3D382E310044657669AF
:107F900063653D61746D6567613332387000465FBB
:107FA0004350553D383030303030304C0042494736
:107FB000424F4F543D3100554152543D30004241F3
:107FC00055445F524154453D3537363030004C45BD
:057FD000443D423500B4
:027FD5000001A9
:027FFE00010878
:0400000300007C007D
:00000001FF
